{
  "contractName": "MyToken",
  "abi": [
    {
      "inputs": [
        {
          "internalType": "address",
          "name": "initialOwner",
          "type": "address"
        }
      ],
      "stateMutability": "nonpayable",
      "type": "constructor"
    },
    {
      "anonymous": false,
      "inputs": [
        {
          "indexed": true,
          "internalType": "address",
          "name": "minter",
          "type": "address"
        }
      ],
      "name": "MinterAuthorized",
      "type": "event"
    },
    {
      "anonymous": false,
      "inputs": [
        {
          "indexed": true,
          "internalType": "address",
          "name": "minter",
          "type": "address"
        }
      ],
      "name": "MinterRevoked",
      "type": "event"
    },
    {
      "anonymous": false,
      "inputs": [
        {
          "indexed": true,
          "internalType": "address",
          "name": "previousOwner",
          "type": "address"
        },
        {
          "indexed": true,
          "internalType": "address",
          "name": "newOwner",
          "type": "address"
        }
      ],
      "name": "OwnershipTransferred",
      "type": "event"
    },
    {
      "anonymous": false,
      "inputs": [
        {
          "indexed": true,
          "internalType": "address",
          "name": "to",
          "type": "address"
        },
        {
          "indexed": true,
          "internalType": "uint256",
          "name": "tokenId",
          "type": "uint256"
        }
      ],
      "name": "TokenMinted",
      "type": "event"
    },
    {
      "anonymous": false,
      "inputs": [
        {
          "indexed": true,
          "internalType": "address",
          "name": "from",
          "type": "address"
        },
        {
          "indexed": true,
          "internalType": "address",
          "name": "to",
          "type": "address"
        },
        {
          "indexed": true,
          "internalType": "uint256",
          "name": "tokenId",
          "type": "uint256"
        }
      ],
      "name": "Transfer",
      "type": "event"
    },
    {
      "inputs": [],
      "name": "name",
      "outputs": [
        {
          "internalType": "string",
          "name": "",
          "type": "string"
        }
      ],
      "stateMutability": "view",
      "type": "function"
    },
    {
      "inputs": [],
      "name": "symbol",
      "outputs": [
        {
          "internalType": "string",
          "name": "",
          "type": "string"
        }
      ],
      "stateMutability": "view",
      "type": "function"
    },
    {
      "inputs": [
        {
          "internalType": "address",
          "name": "newOwner",
          "type": "address"
        }
      ],
      "name": "transferOwnership",
      "outputs": [],
      "stateMutability": "nonpayable",
      "type": "function"
    },
    {
      "inputs": [
        {
          "internalType": "address",
          "name": "minter",
          "type": "address"
        }
      ],
      "name": "authorizeMinter",
      "outputs": [],
      "stateMutability": "nonpayable",
      "type": "function"
    },
    {
      "inputs": [
        {
          "internalType": "address",
          "name": "minter",
          "type": "address"
        }
      ],
      "name": "revokeMinter",
      "outputs": [],
      "stateMutability": "nonpayable",
      "type": "function"
    },
    {
      "inputs": [
        {
          "internalType": "address",
          "name": "to",
          "type": "address"
        }
      ],
      "name": "mintNFT",
      "outputs": [],
      "stateMutability": "nonpayable",
      "type": "function"
    },
    {
      "inputs": [
        {
          "internalType": "uint256",
          "name": "tokenId",
          "type": "uint256"
        }
      ],
      "name": "getOwner",
      "outputs": [
        {
          "internalType": "address",
          "name": "",
          "type": "address"
        }
      ],
      "stateMutability": "view",
      "type": "function"
    },
    {
      "inputs": [
        {
          "internalType": "address",
          "name": "account",
          "type": "address"
        },
        {
          "internalType": "uint256",
          "name": "tokenId",
          "type": "uint256"
        }
      ],
      "name": "isOwnerOf",
      "outputs": [
        {
          "internalType": "bool",
          "name": "",
          "type": "bool"
        }
      ],
      "stateMutability": "view",
      "type": "function"
    },
    {
      "inputs": [],
      "name": "owner",
      "outputs": [
        {
          "internalType": "address",
          "name": "",
          "type": "address"
        }
      ],
      "stateMutability": "view",
      "type": "function"
    }
  ],
  "bytecode": "0x60806040526040518060400160405280600781526020017f4d79546f6b656e000000000000000000000000000000000000000000000000008152505f908162000049919062000495565b506040518060400160405280600381526020017f4d544b00000000000000000000000000000000000000000000000000000000008152506001908162000090919062000495565b503480156200009d575f80fd5b50604051620019fd380380620019fd8339818101604052810190620000c39190620005de565b5f73ffffffffffffffffffffffffffffffffffffffff168173ffffffffffffffffffffffffffffffffffffffff160362000134576040517f08c379a00000000000000000000000000000000000000000000000000000000081526004016200012b906200066c565b60405180910390fd5b8060035f6101000a81548173ffffffffffffffffffffffffffffffffffffffff021916908373ffffffffffffffffffffffffffffffffffffffff1602179055505f600281905550600160065f8373ffffffffffffffffffffffffffffffffffffffff1673ffffffffffffffffffffffffffffffffffffffff1681526020019081526020015f205f6101000a81548160ff0219169083151502179055508073ffffffffffffffffffffffffffffffffffffffff165f73ffffffffffffffffffffffffffffffffffffffff167f8be0079c531659141344cd1fd0a4f28419497f9722a3daafe3b4186f6b6457e060405160405180910390a3506200068c565b5f81519050919050565b7f4e487b71000000000000000000000000000000000000000000000000000000005f52604160045260245ffd5b7f4e487b71000000000000000000000000000000000000000000000000000000005f52602260045260245ffd5b5f6002820490506001821680620002ad57607f821691505b602082108103620002c357620002c262000268565b5b50919050565b5f819050815f5260205f209050919050565b5f6020601f8301049050919050565b5f82821b905092915050565b5f60088302620003277fffffffffffffffffffffffffffffffffffffffffffffffffffffffffffffffff82620002ea565b620003338683620002ea565b95508019841693508086168417925050509392505050565b5f819050919050565b5f819050919050565b5f6200037d6200037762000371846200034b565b62000354565b6200034b565b9050919050565b5f819050919050565b62000398836200035d565b620003b0620003a78262000384565b848454620002f6565b825550505050565b5f90565b620003c6620003b8565b620003d38184846200038d565b505050565b5b81811015620003fa57620003ee5f82620003bc565b600181019050620003d9565b5050565b601f82111562000449576200041381620002c9565b6200041e84620002db565b810160208510156200042e578190505b620004466200043d85620002db565b830182620003d8565b50505b505050565b5f82821c905092915050565b5f6200046b5f19846008026200044e565b1980831691505092915050565b5f6200048583836200045a565b9150826002028217905092915050565b620004a08262000231565b67ffffffffffffffff811115620004bc57620004bb6200023b565b5b620004c8825462000295565b620004d5828285620003fe565b5f60209050601f8311600181146200050b575f8415620004f6578287015190505b62000502858262000478565b86555062000571565b601f1984166200051b86620002c9565b5f5b8281101562000544578489015182556001820191506020850194506020810190506200051d565b8683101562000564578489015162000560601f8916826200045a565b8355505b6001600288020188555050505b505050505050565b5f80fd5b5f73ffffffffffffffffffffffffffffffffffffffff82169050919050565b5f620005a8826200057d565b9050919050565b620005ba816200059c565b8114620005c5575f80fd5b50565b5f81519050620005d881620005af565b92915050565b5f60208284031215620005f657620005f562000579565b5b5f6200060584828501620005c8565b91505092915050565b5f82825260208201905092915050565b7f496e76616c696420696e697469616c206f776e657220616464726573732e00005f82015250565b5f62000654601e836200060e565b915062000661826200061e565b602082019050919050565b5f6020820190508181035f830152620006858162000646565b9050919050565b611363806200069a5f395ff3fe608060405234801561000f575f80fd5b5060043610610091575f3560e01c806395d89b411161006457806395d89b4114610109578063c41a360a14610127578063c5b8f77214610157578063cfbd488514610187578063f2fde38b146101a357610091565b806306fdde03146100955780630c984832146100b357806354ba0f27146100cf5780638da5cb5b146100eb575b5f80fd5b61009d6101bf565b6040516100aa9190610ca2565b60405180910390f35b6100cd60048036038101906100c89190610d20565b61024a565b005b6100e960048036038101906100e49190610d20565b61046c565b005b6100f36106f9565b6040516101009190610d5a565b60405180910390f35b610111610721565b60405161011e9190610ca2565b60405180910390f35b610141600480360381019061013c9190610da6565b6107ad565b60405161014e9190610d5a565b60405180910390f35b610171600480360381019061016c9190610dd1565b610843565b60405161017e9190610e29565b60405180910390f35b6101a1600480360381019061019c9190610d20565b6108ab565b005b6101bd60048036038101906101b89190610d20565b610a5d565b005b5f80546101cb90610e6f565b80601f01602080910402602001604051908101604052809291908181526020018280546101f790610e6f565b80156102425780601f1061021957610100808354040283529160200191610242565b820191905f5260205f20905b81548152906001019060200180831161022557829003601f168201915b505050505081565b60035f9054906101000a900473ffffffffffffffffffffffffffffffffffffffff1673ffffffffffffffffffffffffffffffffffffffff163373ffffffffffffffffffffffffffffffffffffffff16146102d9576040517f08c379a00000000000000000000000000000000000000000000000000000000081526004016102d090610ee9565b60405180910390fd5b5f73ffffffffffffffffffffffffffffffffffffffff168173ffffffffffffffffffffffffffffffffffffffff1603610347576040517f08c379a000000000000000000000000000000000000000000000000000000000815260040161033e90610f51565b60405180910390fd5b60065f8273ffffffffffffffffffffffffffffffffffffffff1673ffffffffffffffffffffffffffffffffffffffff1681526020019081526020015f205f9054906101000a900460ff16156103d1576040517f08c379a00000000000000000000000000000000000000000000000000000000081526004016103c890610fdf565b60405180910390fd5b600160065f8373ffffffffffffffffffffffffffffffffffffffff1673ffffffffffffffffffffffffffffffffffffffff1681526020019081526020015f205f6101000a81548160ff0219169083151502179055508073ffffffffffffffffffffffffffffffffffffffff167f83b05b6735acd4b85e3bded8e72c851d1a87718f81e3c8e6f0c9d9a2baa88e4660405160405180910390a250565b60065f3373ffffffffffffffffffffffffffffffffffffffff1673ffffffffffffffffffffffffffffffffffffffff1681526020019081526020015f205f9054906101000a900460ff166104f5576040517f08c379a00000000000000000000000000000000000000000000000000000000081526004016104ec9061106d565b60405180910390fd5b5f73ffffffffffffffffffffffffffffffffffffffff168173ffffffffffffffffffffffffffffffffffffffff1603610563576040517f08c379a000000000000000000000000000000000000000000000000000000000815260040161055a906110d5565b60405180910390fd5b5f600254905060055f8281526020019081526020015f205f9054906101000a900460ff16156105c7576040517f08c379a00000000000000000000000000000000000000000000000000000000081526004016105be9061113d565b60405180910390fd5b8160045f8381526020019081526020015f205f6101000a81548173ffffffffffffffffffffffffffffffffffffffff021916908373ffffffffffffffffffffffffffffffffffffffff160217905550600160055f8381526020019081526020015f205f6101000a81548160ff021916908315150217905550808273ffffffffffffffffffffffffffffffffffffffff165f73ffffffffffffffffffffffffffffffffffffffff167fddf252ad1be2c89b69c2b068fc378daa952ba7f163c4a11628f55a4df523b3ef60405160405180910390a4808273ffffffffffffffffffffffffffffffffffffffff167fb9144c96c86541f6fa89c9f2f02495cccf4b08cd6643e26d34ee00aa586558a860405160405180910390a360025f8154809291906106f090611188565b91905055505050565b5f60035f9054906101000a900473ffffffffffffffffffffffffffffffffffffffff16905090565b6001805461072e90610e6f565b80601f016020809104026020016040519081016040528092919081815260200182805461075a90610e6f565b80156107a55780601f1061077c576101008083540402835291602001916107a5565b820191905f5260205f20905b81548152906001019060200180831161078857829003601f168201915b505050505081565b5f60055f8381526020019081526020015f205f9054906101000a900460ff1661080b576040517f08c379a000000000000000000000000000000000000000000000000000000000815260040161080290611219565b60405180910390fd5b60045f8381526020019081526020015f205f9054906101000a900473ffffffffffffffffffffffffffffffffffffffff169050919050565b5f8273ffffffffffffffffffffffffffffffffffffffff1660045f8481526020019081526020015f205f9054906101000a900473ffffffffffffffffffffffffffffffffffffffff1673ffffffffffffffffffffffffffffffffffffffff1614905092915050565b60035f9054906101000a900473ffffffffffffffffffffffffffffffffffffffff1673ffffffffffffffffffffffffffffffffffffffff163373ffffffffffffffffffffffffffffffffffffffff161461093a576040517f08c379a000000000000000000000000000000000000000000000000000000000815260040161093190610ee9565b60405180910390fd5b60065f8273ffffffffffffffffffffffffffffffffffffffff1673ffffffffffffffffffffffffffffffffffffffff1681526020019081526020015f205f9054906101000a900460ff166109c3576040517f08c379a00000000000000000000000000000000000000000000000000000000081526004016109ba906112a7565b60405180910390fd5b5f60065f8373ffffffffffffffffffffffffffffffffffffffff1673ffffffffffffffffffffffffffffffffffffffff1681526020019081526020015f205f6101000a81548160ff0219169083151502179055508073ffffffffffffffffffffffffffffffffffffffff167f44f4322f8daa225d5f4877ad0f7d3dfba248a774396f3ca99405ed40a044fe8160405160405180910390a250565b60035f9054906101000a900473ffffffffffffffffffffffffffffffffffffffff1673ffffffffffffffffffffffffffffffffffffffff163373ffffffffffffffffffffffffffffffffffffffff1614610aec576040517f08c379a0000000000000000000000000000000000000000000000000000000008152600401610ae390610ee9565b60405180910390fd5b5f73ffffffffffffffffffffffffffffffffffffffff168173ffffffffffffffffffffffffffffffffffffffff1603610b5a576040517f08c379a0000000000000000000000000000000000000000000000000000000008152600401610b519061130f565b60405180910390fd5b8073ffffffffffffffffffffffffffffffffffffffff1660035f9054906101000a900473ffffffffffffffffffffffffffffffffffffffff1673ffffffffffffffffffffffffffffffffffffffff167f8be0079c531659141344cd1fd0a4f28419497f9722a3daafe3b4186f6b6457e060405160405180910390a38060035f6101000a81548173ffffffffffffffffffffffffffffffffffffffff021916908373ffffffffffffffffffffffffffffffffffffffff16021790555050565b5f81519050919050565b5f82825260208201905092915050565b5f5b83811015610c4f578082015181840152602081019050610c34565b5f8484015250505050565b5f601f19601f8301169050919050565b5f610c7482610c18565b610c7e8185610c22565b9350610c8e818560208601610c32565b610c9781610c5a565b840191505092915050565b5f6020820190508181035f830152610cba8184610c6a565b905092915050565b5f80fd5b5f73ffffffffffffffffffffffffffffffffffffffff82169050919050565b5f610cef82610cc6565b9050919050565b610cff81610ce5565b8114610d09575f80fd5b50565b5f81359050610d1a81610cf6565b92915050565b5f60208284031215610d3557610d34610cc2565b5b5f610d4284828501610d0c565b91505092915050565b610d5481610ce5565b82525050565b5f602082019050610d6d5f830184610d4b565b92915050565b5f819050919050565b610d8581610d73565b8114610d8f575f80fd5b50565b5f81359050610da081610d7c565b92915050565b5f60208284031215610dbb57610dba610cc2565b5b5f610dc884828501610d92565b91505092915050565b5f8060408385031215610de757610de6610cc2565b5b5f610df485828601610d0c565b9250506020610e0585828601610d92565b9150509250929050565b5f8115159050919050565b610e2381610e0f565b82525050565b5f602082019050610e3c5f830184610e1a565b92915050565b7f4e487b71000000000000000000000000000000000000000000000000000000005f52602260045260245ffd5b5f6002820490506001821680610e8657607f821691505b602082108103610e9957610e98610e42565b5b50919050565b7f43616c6c6572206973206e6f7420746865206f776e65720000000000000000005f82015250565b5f610ed3601783610c22565b9150610ede82610e9f565b602082019050919050565b5f6020820190508181035f830152610f0081610ec7565b9050919050565b7f43616e6e6f7420617574686f72697a65207a65726f20616464726573730000005f82015250565b5f610f3b601d83610c22565b9150610f4682610f07565b602082019050919050565b5f6020820190508181035f830152610f6881610f2f565b9050919050565b7f4164647265737320697320616c726561647920616e20617574686f72697a65645f8201527f206d696e74657200000000000000000000000000000000000000000000000000602082015250565b5f610fc9602783610c22565b9150610fd482610f6f565b604082019050919050565b5f6020820190508181035f830152610ff681610fbd565b9050919050565b7f43616c6c6572206973206e6f7420616e20617574686f72697a6564206d696e745f8201527f6572000000000000000000000000000000000000000000000000000000000000602082015250565b5f611057602283610c22565b915061106282610ffd565b604082019050919050565b5f6020820190508181035f8301526110848161104b565b9050919050565b7f43616e6e6f74206d696e7420746f20746865207a65726f2061646472657373005f82015250565b5f6110bf601f83610c22565b91506110ca8261108b565b602082019050919050565b5f6020820190508181035f8301526110ec816110b3565b9050919050565b7f546f6b656e2068617320616c7265616479206265656e206d696e7465640000005f82015250565b5f611127601d83610c22565b9150611132826110f3565b602082019050919050565b5f6020820190508181035f8301526111548161111b565b9050919050565b7f4e487b71000000000000000000000000000000000000000000000000000000005f52601160045260245ffd5b5f61119282610d73565b91507fffffffffffffffffffffffffffffffffffffffffffffffffffffffffffffffff82036111c4576111c361115b565b5b600182019050919050565b7f546f6b656e20646f6573206e6f742065786973740000000000000000000000005f82015250565b5f611203601483610c22565b915061120e826111cf565b602082019050919050565b5f6020820190508181035f830152611230816111f7565b9050919050565b7f41646472657373206973206e6f7420616e20617574686f72697a6564206d696e5f8201527f7465720000000000000000000000000000000000000000000000000000000000602082015250565b5f611291602383610c22565b915061129c82611237565b604082019050919050565b5f6020820190508181035f8301526112be81611285565b9050919050565b7f4e6577206f776e657220697320746865207a65726f20616464726573730000005f82015250565b5f6112f9601d83610c22565b9150611304826112c5565b602082019050919050565b5f6020820190508181035f830152611326816112ed565b905091905056fea26469706673582212202ae3b75c38fbd7c77675cc38ca3b5559b8d12604752462e80916f33b711834b464736f6c63430008150033",
  "immutableReferences": {},
  "source": "// SPDX-License-Identifier: MIT\npragma solidity ^0.8.21;\n\n/// @title MyToken - A simple ERC-721-like NFT contract\n/// @notice This contract mimics the basic functionality of ERC-721 tokens,\n/// including minting and ownership management.\ncontract MyToken {\n    string public name = \"MyToken\";\n    string public symbol = \"MTK\";\n    uint256 private _tokenIdCounter;\n    address private _owner;\n\n    // Mapping to track ownership of tokens\n    mapping(uint256 => address) private _owners;\n    // Mapping to track minted tokens\n    mapping(uint256 => bool) private _mintedTokens;\n    // Authorized minters (initially the owner)\n    mapping(address => bool) private _authorizedMinters;\n\n    // Event emitted when a token is transferred or minted\n    event Transfer(\n        address indexed from,\n        address indexed to,\n        uint256 indexed tokenId\n    );\n    // Event emitted when ownership of the contract changes\n    event OwnershipTransferred(\n        address indexed previousOwner,\n        address indexed newOwner\n    );\n    // Event emitted when a new token is minted\n    event TokenMinted(address indexed to, uint256 indexed tokenId);\n    // Event emitted when a new minter is authorized\n    event MinterAuthorized(address indexed minter);\n    // Event emitted when a minter is revoked\n    event MinterRevoked(address indexed minter);\n\n    /// @notice Constructor to initialize the contract and set the initial owner\n    /// @param initialOwner The address of the initial contract owner\n    constructor(address initialOwner) {\n        require(initialOwner != address(0), \"Invalid initial owner address.\");\n        _owner = initialOwner;\n        _tokenIdCounter = 0;\n        _authorizedMinters[initialOwner] = true; // Owner is an authorized minter\n        emit OwnershipTransferred(address(0), initialOwner);\n    }\n\n    // Modifier to ensure only the contract owner can execute certain functions\n    modifier onlyOwner() {\n        require(msg.sender == _owner, \"Caller is not the owner\");\n        _;\n    }\n\n    // Modifier to ensure the caller is an authorized minter\n    modifier onlyAuthorized() {\n        require(\n            _authorizedMinters[msg.sender],\n            \"Caller is not an authorized minter\"\n        );\n        _;\n    }\n\n    /// @notice Transfer ownership of the contract to a new address\n    /// @param newOwner The new owner's address\n    function transferOwnership(address newOwner) public onlyOwner {\n        require(newOwner != address(0), \"New owner is the zero address\");\n        emit OwnershipTransferred(_owner, newOwner);\n        _owner = newOwner;\n    }\n\n    /// @notice Add a new address to the list of authorized minters\n    /// @param minter The address to authorize as a minter\n    function authorizeMinter(address minter) public onlyOwner {\n        require(minter != address(0), \"Cannot authorize zero address\");\n        require(\n            !_authorizedMinters[minter],\n            \"Address is already an authorized minter\"\n        );\n\n        _authorizedMinters[minter] = true;\n        emit MinterAuthorized(minter);\n    }\n\n    /// @notice Revoke a minter's authorization to mint tokens\n    /// @param minter The address to revoke\n    function revokeMinter(address minter) public onlyOwner {\n        require(\n            _authorizedMinters[minter],\n            \"Address is not an authorized minter\"\n        );\n\n        _authorizedMinters[minter] = false;\n        emit MinterRevoked(minter);\n    }\n\n    /// @notice Mint a new token to a given address\n    /// @param to The address to mint the token to\n    function mintNFT(address to) public onlyAuthorized {\n        require(to != address(0), \"Cannot mint to the zero address\");\n\n        uint256 newTokenId = _tokenIdCounter;\n\n        // Ensure the token has not been minted yet\n        require(!_mintedTokens[newTokenId], \"Token has already been minted\");\n\n        // Mint the token\n        _owners[newTokenId] = to;\n        _mintedTokens[newTokenId] = true;\n\n        // Emit Transfer and TokenMinted events\n        emit Transfer(address(0), to, newTokenId);\n        emit TokenMinted(to, newTokenId);\n\n        // Increment the token counter for future mints\n        _tokenIdCounter++;\n    }\n\n    /// @notice Get the owner of a specific token\n    /// @param tokenId The ID of the token\n    /// @return The address of the owner\n    function getOwner(uint256 tokenId) public view returns (address) {\n        require(_mintedTokens[tokenId], \"Token does not exist\");\n        return _owners[tokenId];\n    }\n\n    /// @notice Check if an address is the owner of a specific token\n    /// @param account The address to check\n    /// @param tokenId The ID of the token\n    /// @return True if the address is the owner, false otherwise\n    function isOwnerOf(\n        address account,\n        uint256 tokenId\n    ) public view returns (bool) {\n        return _owners[tokenId] == account;\n    }\n\n    /// @notice Get the current owner of the contract\n    /// @return The address of the current owner\n    function owner() public view returns (address) {\n        return _owner;\n    }\n}\n",
  "sourcePath": "/home/williamrichard/projects/solidity-e2e-project/contracts/FunctionsAndModifiers.sol",
  "compiler": {
    "name": "solc",
    "version": "0.8.21+commit.d9974bed.Emscripten.clang"
  },
  "schemaVersion": "3.4.16",
  "updatedAt": "2024-11-07T01:19:47.789Z",
  "devdoc": {
    "kind": "dev",
    "methods": {
      "authorizeMinter(address)": {
        "params": {
          "minter": "The address to authorize as a minter"
        }
      },
      "constructor": {
        "params": {
          "initialOwner": "The address of the initial contract owner"
        }
      },
      "getOwner(uint256)": {
        "params": {
          "tokenId": "The ID of the token"
        },
        "returns": {
          "_0": "The address of the owner"
        }
      },
      "isOwnerOf(address,uint256)": {
        "params": {
          "account": "The address to check",
          "tokenId": "The ID of the token"
        },
        "returns": {
          "_0": "True if the address is the owner, false otherwise"
        }
      },
      "mintNFT(address)": {
        "params": {
          "to": "The address to mint the token to"
        }
      },
      "owner()": {
        "returns": {
          "_0": "The address of the current owner"
        }
      },
      "revokeMinter(address)": {
        "params": {
          "minter": "The address to revoke"
        }
      },
      "transferOwnership(address)": {
        "params": {
          "newOwner": "The new owner's address"
        }
      }
    },
    "title": "MyToken - A simple ERC-721-like NFT contract",
    "version": 1
  },
  "userdoc": {
    "kind": "user",
    "methods": {
      "authorizeMinter(address)": {
        "notice": "Add a new address to the list of authorized minters"
      },
      "constructor": {
        "notice": "Constructor to initialize the contract and set the initial owner"
      },
      "getOwner(uint256)": {
        "notice": "Get the owner of a specific token"
      },
      "isOwnerOf(address,uint256)": {
        "notice": "Check if an address is the owner of a specific token"
      },
      "mintNFT(address)": {
        "notice": "Mint a new token to a given address"
      },
      "owner()": {
        "notice": "Get the current owner of the contract"
      },
      "revokeMinter(address)": {
        "notice": "Revoke a minter's authorization to mint tokens"
      },
      "transferOwnership(address)": {
        "notice": "Transfer ownership of the contract to a new address"
      }
    },
    "notice": "This contract mimics the basic functionality of ERC-721 tokens, including minting and ownership management.",
    "version": 1
  }
}